{
  "_format": "hh-sol-artifact-1",
  "contractName": "PremierOctetERC721A",
  "sourceName": "contracts/PremierOctetERC721A.sol",
  "abi": [
    {
      "inputs": [
        {
          "internalType": "address[]",
          "name": "_team",
          "type": "address[]"
        },
        {
          "internalType": "uint256[]",
          "name": "_teamShares",
          "type": "uint256[]"
        },
        {
          "internalType": "string",
          "name": "_baseURI",
          "type": "string"
        }
      ],
      "stateMutability": "nonpayable",
      "type": "constructor"
    },
    {
      "inputs": [],
      "name": "ApprovalCallerNotOwnerNorApproved",
      "type": "error"
    },
    {
      "inputs": [],
      "name": "ApprovalQueryForNonexistentToken",
      "type": "error"
    },
    {
      "inputs": [],
      "name": "ApprovalToCurrentOwner",
      "type": "error"
    },
    {
      "inputs": [],
      "name": "ApproveToCaller",
      "type": "error"
    },
    {
      "inputs": [],
      "name": "BalanceQueryForZeroAddress",
      "type": "error"
    },
    {
      "inputs": [],
      "name": "MintToZeroAddress",
      "type": "error"
    },
    {
      "inputs": [],
      "name": "MintZeroQuantity",
      "type": "error"
    },
    {
      "inputs": [],
      "name": "OwnerIndexOutOfBounds",
      "type": "error"
    },
    {
      "inputs": [],
      "name": "OwnerQueryForNonexistentToken",
      "type": "error"
    },
    {
      "inputs": [],
      "name": "TokenIndexOutOfBounds",
      "type": "error"
    },
    {
      "inputs": [],
      "name": "TransferCallerNotOwnerNorApproved",
      "type": "error"
    },
    {
      "inputs": [],
      "name": "TransferFromIncorrectOwner",
      "type": "error"
    },
    {
      "inputs": [],
      "name": "TransferToNonERC721ReceiverImplementer",
      "type": "error"
    },
    {
      "inputs": [],
      "name": "TransferToZeroAddress",
      "type": "error"
    },
    {
      "anonymous": false,
      "inputs": [
        {
          "indexed": true,
          "internalType": "address",
          "name": "owner",
          "type": "address"
        },
        {
          "indexed": true,
          "internalType": "address",
          "name": "approved",
          "type": "address"
        },
        {
          "indexed": true,
          "internalType": "uint256",
          "name": "tokenId",
          "type": "uint256"
        }
      ],
      "name": "Approval",
      "type": "event"
    },
    {
      "anonymous": false,
      "inputs": [
        {
          "indexed": true,
          "internalType": "address",
          "name": "owner",
          "type": "address"
        },
        {
          "indexed": true,
          "internalType": "address",
          "name": "operator",
          "type": "address"
        },
        {
          "indexed": false,
          "internalType": "bool",
          "name": "approved",
          "type": "bool"
        }
      ],
      "name": "ApprovalForAll",
      "type": "event"
    },
    {
      "anonymous": false,
      "inputs": [
        {
          "indexed": true,
          "internalType": "contract IERC20",
          "name": "token",
          "type": "address"
        },
        {
          "indexed": false,
          "internalType": "address",
          "name": "to",
          "type": "address"
        },
        {
          "indexed": false,
          "internalType": "uint256",
          "name": "amount",
          "type": "uint256"
        }
      ],
      "name": "ERC20PaymentReleased",
      "type": "event"
    },
    {
      "anonymous": false,
      "inputs": [
        {
          "indexed": true,
          "internalType": "address",
          "name": "previousOwner",
          "type": "address"
        },
        {
          "indexed": true,
          "internalType": "address",
          "name": "newOwner",
          "type": "address"
        }
      ],
      "name": "OwnershipTransferred",
      "type": "event"
    },
    {
      "anonymous": false,
      "inputs": [
        {
          "indexed": false,
          "internalType": "address",
          "name": "account",
          "type": "address"
        },
        {
          "indexed": false,
          "internalType": "uint256",
          "name": "shares",
          "type": "uint256"
        }
      ],
      "name": "PayeeAdded",
      "type": "event"
    },
    {
      "anonymous": false,
      "inputs": [
        {
          "indexed": false,
          "internalType": "address",
          "name": "from",
          "type": "address"
        },
        {
          "indexed": false,
          "internalType": "uint256",
          "name": "amount",
          "type": "uint256"
        }
      ],
      "name": "PaymentReceived",
      "type": "event"
    },
    {
      "anonymous": false,
      "inputs": [
        {
          "indexed": false,
          "internalType": "address",
          "name": "to",
          "type": "address"
        },
        {
          "indexed": false,
          "internalType": "uint256",
          "name": "amount",
          "type": "uint256"
        }
      ],
      "name": "PaymentReleased",
      "type": "event"
    },
    {
      "anonymous": false,
      "inputs": [
        {
          "indexed": true,
          "internalType": "address",
          "name": "from",
          "type": "address"
        },
        {
          "indexed": true,
          "internalType": "address",
          "name": "to",
          "type": "address"
        },
        {
          "indexed": true,
          "internalType": "uint256",
          "name": "tokenId",
          "type": "uint256"
        }
      ],
      "name": "Transfer",
      "type": "event"
    },
    {
      "inputs": [
        {
          "internalType": "address",
          "name": "to",
          "type": "address"
        },
        {
          "internalType": "uint256",
          "name": "tokenId",
          "type": "uint256"
        }
      ],
      "name": "approve",
      "outputs": [],
      "stateMutability": "nonpayable",
      "type": "function"
    },
    {
      "inputs": [
        {
          "internalType": "address",
          "name": "owner",
          "type": "address"
        }
      ],
      "name": "balanceOf",
      "outputs": [
        {
          "internalType": "uint256",
          "name": "",
          "type": "uint256"
        }
      ],
      "stateMutability": "view",
      "type": "function"
    },
    {
      "inputs": [],
      "name": "baseURI",
      "outputs": [
        {
          "internalType": "string",
          "name": "",
          "type": "string"
        }
      ],
      "stateMutability": "view",
      "type": "function"
    },
    {
      "inputs": [
        {
          "internalType": "uint256",
          "name": "tokenId",
          "type": "uint256"
        }
      ],
      "name": "getApproved",
      "outputs": [
        {
          "internalType": "address",
          "name": "",
          "type": "address"
        }
      ],
      "stateMutability": "view",
      "type": "function"
    },
    {
      "inputs": [
        {
          "internalType": "address",
          "name": "owner",
          "type": "address"
        },
        {
          "internalType": "address",
          "name": "operator",
          "type": "address"
        }
      ],
      "name": "isApprovedForAll",
      "outputs": [
        {
          "internalType": "bool",
          "name": "",
          "type": "bool"
        }
      ],
      "stateMutability": "view",
      "type": "function"
    },
    {
      "inputs": [],
      "name": "name",
      "outputs": [
        {
          "internalType": "string",
          "name": "",
          "type": "string"
        }
      ],
      "stateMutability": "view",
      "type": "function"
    },
    {
      "inputs": [],
      "name": "owner",
      "outputs": [
        {
          "internalType": "address",
          "name": "",
          "type": "address"
        }
      ],
      "stateMutability": "view",
      "type": "function"
    },
    {
      "inputs": [
        {
          "internalType": "uint256",
          "name": "tokenId",
          "type": "uint256"
        }
      ],
      "name": "ownerOf",
      "outputs": [
        {
          "internalType": "address",
          "name": "",
          "type": "address"
        }
      ],
      "stateMutability": "view",
      "type": "function"
    },
    {
      "inputs": [
        {
          "internalType": "uint256",
          "name": "index",
          "type": "uint256"
        }
      ],
      "name": "payee",
      "outputs": [
        {
          "internalType": "address",
          "name": "",
          "type": "address"
        }
      ],
      "stateMutability": "view",
      "type": "function"
    },
    {
      "inputs": [
        {
          "internalType": "address",
          "name": "_account",
          "type": "address"
        },
        {
          "internalType": "uint256",
          "name": "_quantity",
          "type": "uint256"
        }
      ],
      "name": "publicSaleMint",
      "outputs": [],
      "stateMutability": "payable",
      "type": "function"
    },
    {
      "inputs": [],
      "name": "publicSalePrice",
      "outputs": [
        {
          "internalType": "uint256",
          "name": "",
          "type": "uint256"
        }
      ],
      "stateMutability": "view",
      "type": "function"
    },
    {
      "inputs": [
        {
          "internalType": "address payable",
          "name": "account",
          "type": "address"
        }
      ],
      "name": "release",
      "outputs": [],
      "stateMutability": "nonpayable",
      "type": "function"
    },
    {
      "inputs": [
        {
          "internalType": "contract IERC20",
          "name": "token",
          "type": "address"
        },
        {
          "internalType": "address",
          "name": "account",
          "type": "address"
        }
      ],
      "name": "release",
      "outputs": [],
      "stateMutability": "nonpayable",
      "type": "function"
    },
    {
      "inputs": [],
      "name": "releaseAll",
      "outputs": [],
      "stateMutability": "nonpayable",
      "type": "function"
    },
    {
      "inputs": [
        {
          "internalType": "contract IERC20",
          "name": "token",
          "type": "address"
        },
        {
          "internalType": "address",
          "name": "account",
          "type": "address"
        }
      ],
      "name": "released",
      "outputs": [
        {
          "internalType": "uint256",
          "name": "",
          "type": "uint256"
        }
      ],
      "stateMutability": "view",
      "type": "function"
    },
    {
      "inputs": [
        {
          "internalType": "address",
          "name": "account",
          "type": "address"
        }
      ],
      "name": "released",
      "outputs": [
        {
          "internalType": "uint256",
          "name": "",
          "type": "uint256"
        }
      ],
      "stateMutability": "view",
      "type": "function"
    },
    {
      "inputs": [],
      "name": "renounceOwnership",
      "outputs": [],
      "stateMutability": "nonpayable",
      "type": "function"
    },
    {
      "inputs": [
        {
          "internalType": "address",
          "name": "from",
          "type": "address"
        },
        {
          "internalType": "address",
          "name": "to",
          "type": "address"
        },
        {
          "internalType": "uint256",
          "name": "tokenId",
          "type": "uint256"
        }
      ],
      "name": "safeTransferFrom",
      "outputs": [],
      "stateMutability": "nonpayable",
      "type": "function"
    },
    {
      "inputs": [
        {
          "internalType": "address",
          "name": "from",
          "type": "address"
        },
        {
          "internalType": "address",
          "name": "to",
          "type": "address"
        },
        {
          "internalType": "uint256",
          "name": "tokenId",
          "type": "uint256"
        },
        {
          "internalType": "bytes",
          "name": "_data",
          "type": "bytes"
        }
      ],
      "name": "safeTransferFrom",
      "outputs": [],
      "stateMutability": "nonpayable",
      "type": "function"
    },
    {
      "inputs": [],
      "name": "sellingStep",
      "outputs": [
        {
          "internalType": "enum PremierOctetERC721A.Step",
          "name": "",
          "type": "uint8"
        }
      ],
      "stateMutability": "view",
      "type": "function"
    },
    {
      "inputs": [
        {
          "internalType": "address",
          "name": "operator",
          "type": "address"
        },
        {
          "internalType": "bool",
          "name": "approved",
          "type": "bool"
        }
      ],
      "name": "setApprovalForAll",
      "outputs": [],
      "stateMutability": "nonpayable",
      "type": "function"
    },
    {
      "inputs": [
        {
          "internalType": "uint256",
          "name": "_publicSalePrice",
          "type": "uint256"
        }
      ],
      "name": "setPublicSalePrice",
      "outputs": [],
      "stateMutability": "nonpayable",
      "type": "function"
    },
    {
      "inputs": [
        {
          "internalType": "uint256",
          "name": "_step",
          "type": "uint256"
        }
      ],
      "name": "setStep",
      "outputs": [],
      "stateMutability": "nonpayable",
      "type": "function"
    },
    {
      "inputs": [
        {
          "internalType": "address",
          "name": "account",
          "type": "address"
        }
      ],
      "name": "shares",
      "outputs": [
        {
          "internalType": "uint256",
          "name": "",
          "type": "uint256"
        }
      ],
      "stateMutability": "view",
      "type": "function"
    },
    {
      "inputs": [
        {
          "internalType": "bytes4",
          "name": "interfaceId",
          "type": "bytes4"
        }
      ],
      "name": "supportsInterface",
      "outputs": [
        {
          "internalType": "bool",
          "name": "",
          "type": "bool"
        }
      ],
      "stateMutability": "view",
      "type": "function"
    },
    {
      "inputs": [],
      "name": "symbol",
      "outputs": [
        {
          "internalType": "string",
          "name": "",
          "type": "string"
        }
      ],
      "stateMutability": "view",
      "type": "function"
    },
    {
      "inputs": [
        {
          "internalType": "uint256",
          "name": "index",
          "type": "uint256"
        }
      ],
      "name": "tokenByIndex",
      "outputs": [
        {
          "internalType": "uint256",
          "name": "",
          "type": "uint256"
        }
      ],
      "stateMutability": "view",
      "type": "function"
    },
    {
      "inputs": [
        {
          "internalType": "address",
          "name": "owner",
          "type": "address"
        },
        {
          "internalType": "uint256",
          "name": "index",
          "type": "uint256"
        }
      ],
      "name": "tokenOfOwnerByIndex",
      "outputs": [
        {
          "internalType": "uint256",
          "name": "",
          "type": "uint256"
        }
      ],
      "stateMutability": "view",
      "type": "function"
    },
    {
      "inputs": [
        {
          "internalType": "uint256",
          "name": "_tokenId",
          "type": "uint256"
        }
      ],
      "name": "tokenURI",
      "outputs": [
        {
          "internalType": "string",
          "name": "",
          "type": "string"
        }
      ],
      "stateMutability": "view",
      "type": "function"
    },
    {
      "inputs": [
        {
          "internalType": "contract IERC20",
          "name": "token",
          "type": "address"
        }
      ],
      "name": "totalReleased",
      "outputs": [
        {
          "internalType": "uint256",
          "name": "",
          "type": "uint256"
        }
      ],
      "stateMutability": "view",
      "type": "function"
    },
    {
      "inputs": [],
      "name": "totalReleased",
      "outputs": [
        {
          "internalType": "uint256",
          "name": "",
          "type": "uint256"
        }
      ],
      "stateMutability": "view",
      "type": "function"
    },
    {
      "inputs": [],
      "name": "totalShares",
      "outputs": [
        {
          "internalType": "uint256",
          "name": "",
          "type": "uint256"
        }
      ],
      "stateMutability": "view",
      "type": "function"
    },
    {
      "inputs": [],
      "name": "totalSupply",
      "outputs": [
        {
          "internalType": "uint256",
          "name": "",
          "type": "uint256"
        }
      ],
      "stateMutability": "view",
      "type": "function"
    },
    {
      "inputs": [
        {
          "internalType": "address",
          "name": "from",
          "type": "address"
        },
        {
          "internalType": "address",
          "name": "to",
          "type": "address"
        },
        {
          "internalType": "uint256",
          "name": "tokenId",
          "type": "uint256"
        }
      ],
      "name": "transferFrom",
      "outputs": [],
      "stateMutability": "nonpayable",
      "type": "function"
    },
    {
      "inputs": [
        {
          "internalType": "address",
          "name": "newOwner",
          "type": "address"
        }
      ],
      "name": "transferOwnership",
      "outputs": [],
      "stateMutability": "nonpayable",
      "type": "function"
    },
    {
      "stateMutability": "payable",
      "type": "receive"
    }
  ],
  "bytecode": "0x608060405266071afd498d00006010553480156200001c57600080fd5b5060405162002e8438038062002e848339810160408190526200003f9162000680565b82826040518060400160405280600d81526020016c141c995b5a595c8813d8dd195d609a1b81525060405180604001604052806002815260200161504f60f01b8152506200009c620000966200022160201b60201c565b62000225565b8151620000b190600290602085019062000463565b508051620000c790600390602084019062000463565b50505080518251146200013c5760405162461bcd60e51b815260206004820152603260248201527f5061796d656e7453706c69747465723a2070617965657320616e6420736861726044820152710cae640d8cadccee8d040dad2e6dac2e8c6d60731b60648201526084015b60405180910390fd5b60008251116200018f5760405162461bcd60e51b815260206004820152601a60248201527f5061796d656e7453706c69747465723a206e6f20706179656573000000000000604482015260640162000133565b60005b8251811015620001fb57620001e6838281518110620001b557620001b562000785565b6020026020010151838381518110620001d257620001d262000785565b60200260200101516200027560201b60201c565b80620001f281620007b1565b91505062000192565b50508151620002139150601190602084019062000463565b505090516012555062000827565b3390565b600080546001600160a01b038381166001600160a01b0319831681178455604051919092169283917f8be0079c531659141344cd1fd0a4f28419497f9722a3daafe3b4186f6b6457e09190a35050565b6001600160a01b038216620002e25760405162461bcd60e51b815260206004820152602c60248201527f5061796d656e7453706c69747465723a206163636f756e74206973207468652060448201526b7a65726f206164647265737360a01b606482015260840162000133565b60008111620003345760405162461bcd60e51b815260206004820152601d60248201527f5061796d656e7453706c69747465723a20736861726573206172652030000000604482015260640162000133565b6001600160a01b0382166000908152600a602052604090205415620003b05760405162461bcd60e51b815260206004820152602b60248201527f5061796d656e7453706c69747465723a206163636f756e7420616c726561647960448201526a206861732073686172657360a81b606482015260840162000133565b600c8054600181019091557fdf6966c971051c3d54ec59162606531493a51404a002842f56009d7e5cf4a8c70180546001600160a01b0319166001600160a01b0384169081179091556000908152600a602052604090208190556008546200041a908290620007cf565b600855604080516001600160a01b0384168152602081018390527f40c340f65e17194d14ddddb073d3c9f888e3cb52b5aae0c6c7706b4fbc905fac910160405180910390a15050565b8280546200047190620007ea565b90600052602060002090601f016020900481019282620004955760008555620004e0565b82601f10620004b057805160ff1916838001178555620004e0565b82800160010185558215620004e0579182015b82811115620004e0578251825591602001919060010190620004c3565b50620004ee929150620004f2565b5090565b5b80821115620004ee5760008155600101620004f3565b634e487b7160e01b600052604160045260246000fd5b604051601f8201601f191681016001600160401b03811182821017156200054a576200054a62000509565b604052919050565b60006001600160401b038211156200056e576200056e62000509565b5060051b60200190565b600082601f8301126200058a57600080fd5b81516020620005a36200059d8362000552565b6200051f565b82815260059290921b84018101918181019086841115620005c357600080fd5b8286015b84811015620005e05780518352918301918301620005c7565b509695505050505050565b600082601f830112620005fd57600080fd5b81516001600160401b0381111562000619576200061962000509565b60206200062f601f8301601f191682016200051f565b82815285828487010111156200064457600080fd5b60005b838110156200066457858101830151828201840152820162000647565b83811115620006765760008385840101525b5095945050505050565b6000806000606084860312156200069657600080fd5b83516001600160401b0380821115620006ae57600080fd5b818601915086601f830112620006c357600080fd5b81516020620006d66200059d8362000552565b82815260059290921b8401810191818101908a841115620006f657600080fd5b948201945b838610156200072d5785516001600160a01b03811681146200071d5760008081fd5b82529482019490820190620006fb565b918901519197509093505050808211156200074757600080fd5b620007558783880162000578565b935060408601519150808211156200076c57600080fd5b506200077b86828701620005eb565b9150509250925092565b634e487b7160e01b600052603260045260246000fd5b634e487b7160e01b600052601160045260246000fd5b6000600019821415620007c857620007c86200079b565b5060010190565b60008219821115620007e557620007e56200079b565b500190565b600181811c90821680620007ff57607f821691505b602082108114156200082157634e487b7160e01b600052602260045260246000fd5b50919050565b61264d80620008376000396000f3fe6080604052600436106102085760003560e01c8063715018a611610118578063b88d4fde116100a0578063d79779b21161006f578063d79779b21461066d578063e33b7de3146106a3578063e985e9c5146106b8578063f2fde38b14610701578063f8dcbddb1461072157600080fd5b8063b88d4fde146105d0578063c87b56dd146105f0578063cbccefb214610610578063ce7c2ac21461063757600080fd5b806395d89b41116100e757806395d89b411461053c5780639852595c146105515780639b6860c814610587578063a22cb4651461059d578063ac5ae11b146105bd57600080fd5b8063715018a6146104c9578063791a2519146104de5780638b83209b146104fe5780638da5cb5b1461051e57600080fd5b80633a98ef391161019b5780634f6ccce71161016a5780634f6ccce71461043f5780635be7fde81461045f5780636352211e146104745780636c0360eb1461049457806370a08231146104a957600080fd5b80633a98ef39146103a4578063406072a9146103b957806342842e0e146103ff57806348b750441461041f57600080fd5b806318160ddd116101d757806318160ddd14610307578063191655871461034457806323b872dd146103645780632f745c591461038457600080fd5b806301ffc9a71461025657806306fdde031461028b578063081812fc146102ad578063095ea7b3146102e557600080fd5b36610251577f6ef95f06320e7a25a04a175ca677b7052bdd97131872c2192525a629f51be77033604080516001600160a01b0390921682523460208301520160405180910390a1005b600080fd5b34801561026257600080fd5b50610276610271366004611fd7565b610741565b60405190151581526020015b60405180910390f35b34801561029757600080fd5b506102a06107ae565b604051610282919061204c565b3480156102b957600080fd5b506102cd6102c836600461205f565b610840565b6040516001600160a01b039091168152602001610282565b3480156102f157600080fd5b5061030561030036600461208d565b610884565b005b34801561031357600080fd5b506103366001546001600160801b03600160801b82048116918116919091031690565b604051908152602001610282565b34801561035057600080fd5b5061030561035f3660046120b9565b610912565b34801561037057600080fd5b5061030561037f3660046120d6565b610a49565b34801561039057600080fd5b5061033661039f36600461208d565b610a54565b3480156103b057600080fd5b50600854610336565b3480156103c557600080fd5b506103366103d4366004612117565b6001600160a01b039182166000908152600e6020908152604080832093909416825291909152205490565b34801561040b57600080fd5b5061030561041a3660046120d6565b610b51565b34801561042b57600080fd5b5061030561043a366004612117565b610b6c565b34801561044b57600080fd5b5061033661045a36600461205f565b610d45565b34801561046b57600080fd5b50610305610df2565b34801561048057600080fd5b506102cd61048f36600461205f565b610e4a565b3480156104a057600080fd5b506102a0610e5c565b3480156104b557600080fd5b506103366104c43660046120b9565b610eea565b3480156104d557600080fd5b50610305610f39565b3480156104ea57600080fd5b506103056104f936600461205f565b610f6f565b34801561050a57600080fd5b506102cd61051936600461205f565b610f9e565b34801561052a57600080fd5b506000546001600160a01b03166102cd565b34801561054857600080fd5b506102a0610fce565b34801561055d57600080fd5b5061033661056c3660046120b9565b6001600160a01b03166000908152600b602052604090205490565b34801561059357600080fd5b5061033660105481565b3480156105a957600080fd5b506103056105b836600461215e565b610fdd565b6103056105cb36600461208d565b611073565b3480156105dc57600080fd5b506103056105eb3660046121a2565b61122f565b3480156105fc57600080fd5b506102a061060b36600461205f565b611269565b34801561061c57600080fd5b50600f5461062a9060ff1681565b6040516102829190612298565b34801561064357600080fd5b506103366106523660046120b9565b6001600160a01b03166000908152600a602052604090205490565b34801561067957600080fd5b506103366106883660046120b9565b6001600160a01b03166000908152600d602052604090205490565b3480156106af57600080fd5b50600954610336565b3480156106c457600080fd5b506102766106d3366004612117565b6001600160a01b03918216600090815260076020908152604080832093909416825291909152205460ff1690565b34801561070d57600080fd5b5061030561071c3660046120b9565b6112f2565b34801561072d57600080fd5b5061030561073c36600461205f565b61138a565b60006001600160e01b031982166380ac58cd60e01b148061077257506001600160e01b03198216635b5e139f60e01b145b8061078d57506001600160e01b0319821663780e9d6360e01b145b806107a857506301ffc9a760e01b6001600160e01b03198316145b92915050565b6060600280546107bd906122c0565b80601f01602080910402602001604051908101604052809291908181526020018280546107e9906122c0565b80156108365780601f1061080b57610100808354040283529160200191610836565b820191906000526020600020905b81548152906001019060200180831161081957829003601f168201915b5050505050905090565b600061084b826113ea565b610868576040516333d1c03960e21b815260040160405180910390fd5b506000908152600660205260409020546001600160a01b031690565b600061088f82610e4a565b9050806001600160a01b0316836001600160a01b031614156108c45760405163250fdee360e21b815260040160405180910390fd5b336001600160a01b038216148015906108e457506108e281336106d3565b155b15610902576040516367d9dca160e11b815260040160405180910390fd5b61090d838383611420565b505050565b6001600160a01b0381166000908152600a60205260409020546109505760405162461bcd60e51b8152600401610947906122fb565b60405180910390fd5b600061095b60095490565b6109659047612357565b90506000610992838361098d866001600160a01b03166000908152600b602052604090205490565b61147c565b9050806109b15760405162461bcd60e51b81526004016109479061236f565b6001600160a01b0383166000908152600b6020526040812080548392906109d9908490612357565b9250508190555080600960008282546109f29190612357565b90915550610a02905083826114c4565b604080516001600160a01b0385168152602081018390527fdf20fd1e76bc69d672e4814fafb2c449bba3a5369d8359adf9e05e6fde87b056910160405180910390a1505050565b61090d8383836115dd565b6000610a5f83610eea565b8210610a7e576040516306ed618760e11b815260040160405180910390fd5b6001546001600160801b0316600080805b83811015610b4b57600081815260046020908152604091829020825160608101845290546001600160a01b0381168252600160a01b810467ffffffffffffffff1692820192909252600160e01b90910460ff161580159282019290925290610af75750610b43565b80516001600160a01b031615610b0c57805192505b876001600160a01b0316836001600160a01b03161415610b415786841415610b3a575093506107a892505050565b6001909301925b505b600101610a8f565b50600080fd5b61090d8383836040518060200160405280600081525061122f565b6001600160a01b0381166000908152600a6020526040902054610ba15760405162461bcd60e51b8152600401610947906122fb565b6001600160a01b0382166000908152600d60205260408120546040516370a0823160e01b81523060048201526001600160a01b038516906370a0823190602401602060405180830381865afa158015610bfe573d6000803e3d6000fd5b505050506040513d601f19601f82011682018060405250810190610c2291906123ba565b610c2c9190612357565b90506000610c65838361098d87876001600160a01b039182166000908152600e6020908152604080832093909416825291909152205490565b905080610c845760405162461bcd60e51b81526004016109479061236f565b6001600160a01b038085166000908152600e6020908152604080832093871683529290529081208054839290610cbb908490612357565b90915550506001600160a01b0384166000908152600d602052604081208054839290610ce8908490612357565b90915550610cf990508484836117fc565b604080516001600160a01b038581168252602082018490528616917f3be5b7a71e84ed12875d241991c70855ac5817d847039e17a9d895c1ceb0f18a910160405180910390a250505050565b6001546000906001600160801b031681805b82811015610dd857600081815260046020908152604091829020825160608101845290546001600160a01b0381168252600160a01b810467ffffffffffffffff1692820192909252600160e01b90910460ff16151591810182905290610dcf5785831415610dc85750949350505050565b6001909201915b50600101610d57565b506040516329c8c00760e21b815260040160405180910390fd5b6000546001600160a01b03163314610e1c5760405162461bcd60e51b8152600401610947906123d3565b60005b601254811015610e4757610e3561035f82610f9e565b80610e3f81612408565b915050610e1f565b50565b6000610e558261184e565b5192915050565b60118054610e69906122c0565b80601f0160208091040260200160405190810160405280929190818152602001828054610e95906122c0565b8015610ee25780601f10610eb757610100808354040283529160200191610ee2565b820191906000526020600020905b815481529060010190602001808311610ec557829003601f168201915b505050505081565b60006001600160a01b038216610f13576040516323d3ad8160e21b815260040160405180910390fd5b506001600160a01b031660009081526005602052604090205467ffffffffffffffff1690565b6000546001600160a01b03163314610f635760405162461bcd60e51b8152600401610947906123d3565b610f6d6000611974565b565b6000546001600160a01b03163314610f995760405162461bcd60e51b8152600401610947906123d3565b601055565b6000600c8281548110610fb357610fb3612423565b6000918252602090912001546001600160a01b031692915050565b6060600380546107bd906122c0565b6001600160a01b0382163314156110075760405163b06307db60e01b815260040160405180910390fd5b3360008181526007602090815260408083206001600160a01b03871680855290835292819020805460ff191686151590811790915590519081529192917f17307eab39ab6107e8899845ad3d59bd9653f200f220920489ca2b5937696c31910160405180910390a35050565b3233146110c25760405162461bcd60e51b815260206004820152601e60248201527f5468652063616c6c657220697320616e6f7468657220636f6e747261637400006044820152606401610947565b601054806110ff5760405162461bcd60e51b815260206004820152600a6024820152690507269636520697320360b41b6044820152606401610947565b6001600f5460ff16600281111561111857611118612282565b146111655760405162461bcd60e51b815260206004820152601c60248201527f5075626c69632073616c65206973206e6f7420616374697661746564000000006044820152606401610947565b60038261118a6001546001600160801b03600160801b82048116918116919091031690565b6111949190612357565b11156111d85760405162461bcd60e51b815260206004820152601360248201527213585e081cdd5c1c1b1e48195e18d959591959606a1b6044820152606401610947565b6111e28282612439565b3410156112255760405162461bcd60e51b81526020600482015260116024820152704e6f7420656e6f756768742066756e647360781b6044820152606401610947565b61090d83836119c4565b61123a8484846115dd565b611246848484846119e2565b611263576040516368d2bf6b60e11b815260040160405180910390fd5b50505050565b6060611274826113ea565b6112c05760405162461bcd60e51b815260206004820152601f60248201527f55524920717565727920666f72206e6f6e6578697374656e7420746f6b656e006044820152606401610947565b60116112cb83611ae2565b6040516020016112dc929190612474565b6040516020818303038152906040529050919050565b6000546001600160a01b0316331461131c5760405162461bcd60e51b8152600401610947906123d3565b6001600160a01b0381166113815760405162461bcd60e51b815260206004820152602660248201527f4f776e61626c653a206e6577206f776e657220697320746865207a65726f206160448201526564647265737360d01b6064820152608401610947565b610e4781611974565b6000546001600160a01b031633146113b45760405162461bcd60e51b8152600401610947906123d3565b8060028111156113c6576113c6612282565b600f805460ff191660018360028111156113e2576113e2612282565b021790555050565b6001546000906001600160801b0316821080156107a8575050600090815260046020526040902054600160e01b900460ff161590565b60008281526006602052604080822080546001600160a01b0319166001600160a01b0387811691821790925591518593918516917f8c5be1e5ebec7d5bd14f71427d1e84f3dd0314c0f7b2291e5b200ac8c7c3b92591a4505050565b6008546001600160a01b0384166000908152600a6020526040812054909183916114a69086612439565b6114b09190612545565b6114ba9190612559565b90505b9392505050565b804710156115145760405162461bcd60e51b815260206004820152601d60248201527f416464726573733a20696e73756666696369656e742062616c616e63650000006044820152606401610947565b6000826001600160a01b03168260405160006040518083038185875af1925050503d8060008114611561576040519150601f19603f3d011682016040523d82523d6000602084013e611566565b606091505b505090508061090d5760405162461bcd60e51b815260206004820152603a60248201527f416464726573733a20756e61626c6520746f2073656e642076616c75652c207260448201527f6563697069656e74206d617920686176652072657665727465640000000000006064820152608401610947565b60006115e88261184e565b80519091506000906001600160a01b0316336001600160a01b031614806116165750815161161690336106d3565b8061163157503361162684610840565b6001600160a01b0316145b90508061165157604051632ce44b5f60e11b815260040160405180910390fd5b846001600160a01b031682600001516001600160a01b0316146116865760405162a1148160e81b815260040160405180910390fd5b6001600160a01b0384166116ad57604051633a954ecd60e21b815260040160405180910390fd5b6116bd6000848460000151611420565b6001600160a01b038581166000908152600560209081526040808320805467ffffffffffffffff1980821667ffffffffffffffff92831660001901831617909255898616808652838620805493841693831660019081018416949094179055898652600490945282852080546001600160e01b031916909417600160a01b4290921691909102179092559086018083529120549091166117b2576001546001600160801b03168110156117b2578251600082815260046020908152604090912080549186015167ffffffffffffffff16600160a01b026001600160e01b03199092166001600160a01b03909316929092171790555b5082846001600160a01b0316866001600160a01b03167fddf252ad1be2c89b69c2b068fc378daa952ba7f163c4a11628f55a4df523b3ef60405160405180910390a45b5050505050565b604080516001600160a01b038416602482015260448082018490528251808303909101815260649091019091526020810180516001600160e01b031663a9059cbb60e01b17905261090d908490611be0565b604080516060810182526000808252602082018190529181019190915260015482906001600160801b031681101561195b57600081815260046020908152604091829020825160608101845290546001600160a01b0381168252600160a01b810467ffffffffffffffff1692820192909252600160e01b90910460ff161515918101829052906119595780516001600160a01b0316156118ef579392505050565b5060001901600081815260046020908152604091829020825160608101845290546001600160a01b038116808352600160a01b820467ffffffffffffffff1693830193909352600160e01b900460ff1615159281019290925215611954579392505050565b6118ef565b505b604051636f96cda160e11b815260040160405180910390fd5b600080546001600160a01b038381166001600160a01b0319831681178455604051919092169283917f8be0079c531659141344cd1fd0a4f28419497f9722a3daafe3b4186f6b6457e09190a35050565b6119de828260405180602001604052806000815250611cb2565b5050565b60006001600160a01b0384163b15611ad657604051630a85bd0160e11b81526001600160a01b0385169063150b7a0290611a26903390899088908890600401612570565b6020604051808303816000875af1925050508015611a61575060408051601f3d908101601f19168201909252611a5e918101906125ad565b60015b611abc573d808015611a8f576040519150601f19603f3d011682016040523d82523d6000602084013e611a94565b606091505b508051611ab4576040516368d2bf6b60e11b815260040160405180910390fd5b805181602001fd5b6001600160e01b031916630a85bd0160e11b149050611ada565b5060015b949350505050565b606081611b065750506040805180820190915260018152600360fc1b602082015290565b8160005b8115611b305780611b1a81612408565b9150611b299050600a83612545565b9150611b0a565b60008167ffffffffffffffff811115611b4b57611b4b61218c565b6040519080825280601f01601f191660200182016040528015611b75576020820181803683370190505b5090505b8415611ada57611b8a600183612559565b9150611b97600a866125ca565b611ba2906030612357565b60f81b818381518110611bb757611bb7612423565b60200101906001600160f81b031916908160001a905350611bd9600a86612545565b9450611b79565b6000611c35826040518060400160405280602081526020017f5361666545524332303a206c6f772d6c6576656c2063616c6c206661696c6564815250856001600160a01b0316611cbf9092919063ffffffff16565b80519091501561090d5780806020019051810190611c5391906125de565b61090d5760405162461bcd60e51b815260206004820152602a60248201527f5361666545524332303a204552433230206f7065726174696f6e20646964206e6044820152691bdd081cdd58d8d9595960b21b6064820152608401610947565b61090d8383836001611cce565b60606114ba8484600085611e57565b6001546001600160801b03166001600160a01b038516611d0057604051622e076360e81b815260040160405180910390fd5b83611d1e5760405163b562e8dd60e01b815260040160405180910390fd5b6001600160a01b038516600081815260056020908152604080832080546001600160801b0319811667ffffffffffffffff8083168c0181169182176801000000000000000067ffffffffffffffff1990941690921783900481168c018116909202179091558584526004909252822080546001600160e01b031916909317600160a01b42909216919091021790915581905b85811015611e315760405182906001600160a01b038916906000907fddf252ad1be2c89b69c2b068fc378daa952ba7f163c4a11628f55a4df523b3ef908290a4838015611e075750611e0560008884886119e2565b155b15611e25576040516368d2bf6b60e11b815260040160405180910390fd5b60019182019101611db0565b50600180546001600160801b0319166001600160801b03929092169190911790556117f5565b606082471015611eb85760405162461bcd60e51b815260206004820152602660248201527f416464726573733a20696e73756666696369656e742062616c616e636520666f6044820152651c8818d85b1b60d21b6064820152608401610947565b6001600160a01b0385163b611f0f5760405162461bcd60e51b815260206004820152601d60248201527f416464726573733a2063616c6c20746f206e6f6e2d636f6e74726163740000006044820152606401610947565b600080866001600160a01b03168587604051611f2b91906125fb565b60006040518083038185875af1925050503d8060008114611f68576040519150601f19603f3d011682016040523d82523d6000602084013e611f6d565b606091505b5091509150611f7d828286611f88565b979650505050505050565b60608315611f975750816114bd565b825115611fa75782518084602001fd5b8160405162461bcd60e51b8152600401610947919061204c565b6001600160e01b031981168114610e4757600080fd5b600060208284031215611fe957600080fd5b81356114bd81611fc1565b60005b8381101561200f578181015183820152602001611ff7565b838111156112635750506000910152565b60008151808452612038816020860160208601611ff4565b601f01601f19169290920160200192915050565b6020815260006114bd6020830184612020565b60006020828403121561207157600080fd5b5035919050565b6001600160a01b0381168114610e4757600080fd5b600080604083850312156120a057600080fd5b82356120ab81612078565b946020939093013593505050565b6000602082840312156120cb57600080fd5b81356114bd81612078565b6000806000606084860312156120eb57600080fd5b83356120f681612078565b9250602084013561210681612078565b929592945050506040919091013590565b6000806040838503121561212a57600080fd5b823561213581612078565b9150602083013561214581612078565b809150509250929050565b8015158114610e4757600080fd5b6000806040838503121561217157600080fd5b823561217c81612078565b9150602083013561214581612150565b634e487b7160e01b600052604160045260246000fd5b600080600080608085870312156121b857600080fd5b84356121c381612078565b935060208501356121d381612078565b925060408501359150606085013567ffffffffffffffff808211156121f757600080fd5b818701915087601f83011261220b57600080fd5b81358181111561221d5761221d61218c565b604051601f8201601f19908116603f011681019083821181831017156122455761224561218c565b816040528281528a602084870101111561225e57600080fd5b82602086016020830137600060208483010152809550505050505092959194509250565b634e487b7160e01b600052602160045260246000fd5b60208101600383106122ba57634e487b7160e01b600052602160045260246000fd5b91905290565b600181811c908216806122d457607f821691505b602082108114156122f557634e487b7160e01b600052602260045260246000fd5b50919050565b60208082526026908201527f5061796d656e7453706c69747465723a206163636f756e7420686173206e6f2060408201526573686172657360d01b606082015260800190565b634e487b7160e01b600052601160045260246000fd5b6000821982111561236a5761236a612341565b500190565b6020808252602b908201527f5061796d656e7453706c69747465723a206163636f756e74206973206e6f742060408201526a191d59481c185e5b595b9d60aa1b606082015260800190565b6000602082840312156123cc57600080fd5b5051919050565b6020808252818101527f4f776e61626c653a2063616c6c6572206973206e6f7420746865206f776e6572604082015260600190565b600060001982141561241c5761241c612341565b5060010190565b634e487b7160e01b600052603260045260246000fd5b600081600019048311821515161561245357612453612341565b500290565b6000815161246a818560208601611ff4565b9290920192915050565b600080845481600182811c91508083168061249057607f831692505b60208084108214156124b057634e487b7160e01b86526022600452602486fd5b8180156124c457600181146124d557612502565b60ff19861689528489019650612502565b60008b81526020902060005b868110156124fa5781548b8201529085019083016124e1565b505084890196505b5050505050506125266125158286612458565b64173539b7b760d91b815260050190565b95945050505050565b634e487b7160e01b600052601260045260246000fd5b6000826125545761255461252f565b500490565b60008282101561256b5761256b612341565b500390565b6001600160a01b03858116825284166020820152604081018390526080606082018190526000906125a390830184612020565b9695505050505050565b6000602082840312156125bf57600080fd5b81516114bd81611fc1565b6000826125d9576125d961252f565b500690565b6000602082840312156125f057600080fd5b81516114bd81612150565b6000825161260d818460208701611ff4565b919091019291505056fea264697066735822122036c683a2248902527b0e906a744fe576b1c222fa03945a898706b158b0b0fbe864736f6c634300080c0033",
  "linkReferences": {},
  "deployedLinkReferences": {}
}